{
  "contractName": "GalaxyCoinICO",
  "abi": [
    {
      "inputs": [
        {
          "internalType": "address",
          "name": "_tokenAddress",
          "type": "address"
        }
      ],
      "stateMutability": "nonpayable",
      "type": "constructor"
    },
    {
      "anonymous": false,
      "inputs": [
        {
          "indexed": true,
          "internalType": "address",
          "name": "previousOwner",
          "type": "address"
        },
        {
          "indexed": true,
          "internalType": "address",
          "name": "newOwner",
          "type": "address"
        }
      ],
      "name": "OwnershipTransferred",
      "type": "event"
    },
    {
      "stateMutability": "payable",
      "type": "fallback",
      "payable": true
    },
    {
      "inputs": [],
      "name": "_rate",
      "outputs": [
        {
          "internalType": "uint256",
          "name": "",
          "type": "uint256"
        }
      ],
      "stateMutability": "view",
      "type": "function",
      "constant": true
    },
    {
      "inputs": [],
      "name": "owner",
      "outputs": [
        {
          "internalType": "address",
          "name": "",
          "type": "address"
        }
      ],
      "stateMutability": "view",
      "type": "function",
      "constant": true
    },
    {
      "inputs": [],
      "name": "renounceOwnership",
      "outputs": [],
      "stateMutability": "nonpayable",
      "type": "function"
    },
    {
      "inputs": [
        {
          "internalType": "address",
          "name": "newOwner",
          "type": "address"
        }
      ],
      "name": "transferOwnership",
      "outputs": [],
      "stateMutability": "nonpayable",
      "type": "function"
    },
    {
      "stateMutability": "payable",
      "type": "receive",
      "payable": true
    },
    {
      "inputs": [],
      "name": "withdraw",
      "outputs": [],
      "stateMutability": "nonpayable",
      "type": "function"
    }
  ],
  "bytecode": "0x6080604052610a8c60025534801561001657600080fd5b50604051610bfb380380610bfb833981810160405281019061003891906101ca565b61005461004961009b60201b60201c565b6100a360201b60201c565b80600160006101000a81548173ffffffffffffffffffffffffffffffffffffffff021916908373ffffffffffffffffffffffffffffffffffffffff160217905550506101f7565b600033905090565b60008060009054906101000a900473ffffffffffffffffffffffffffffffffffffffff169050816000806101000a81548173ffffffffffffffffffffffffffffffffffffffff021916908373ffffffffffffffffffffffffffffffffffffffff1602179055508173ffffffffffffffffffffffffffffffffffffffff168173ffffffffffffffffffffffffffffffffffffffff167f8be0079c531659141344cd1fd0a4f28419497f9722a3daafe3b4186f6b6457e060405160405180910390a35050565b600080fd5b600073ffffffffffffffffffffffffffffffffffffffff82169050919050565b60006101978261016c565b9050919050565b6101a78161018c565b81146101b257600080fd5b50565b6000815190506101c48161019e565b92915050565b6000602082840312156101e0576101df610167565b5b60006101ee848285016101b5565b91505092915050565b6109f5806102066000396000f3fe60806040526004361061004e5760003560e01c80633ccfd60b146101d4578063715018a6146101eb57806383bebced146102025780638da5cb5b1461022d578063f2fde38b1461025857610113565b3661011357600061005e34610281565b9050600160009054906101000a900473ffffffffffffffffffffffffffffffffffffffff1673ffffffffffffffffffffffffffffffffffffffff1663a9059cbb33836040518363ffffffff1660e01b81526004016100bd929190610699565b602060405180830381600087803b1580156100d757600080fd5b505af11580156100eb573d6000803e3d6000fd5b505050506040513d601f19601f8201168201806040525081019061010f91906106ff565b5050005b60006802b5e3af16b18800009050600160009054906101000a900473ffffffffffffffffffffffffffffffffffffffff1673ffffffffffffffffffffffffffffffffffffffff1663a9059cbb33836040518363ffffffff1660e01b815260040161017e929190610699565b602060405180830381600087803b15801561019857600080fd5b505af11580156101ac573d6000803e3d6000fd5b505050506040513d601f19601f820116820180604052508101906101d091906106ff565b5050005b3480156101e057600080fd5b506101e961029f565b005b3480156101f757600080fd5b506102006103ae565b005b34801561020e57600080fd5b50610217610436565b604051610224919061072c565b60405180910390f35b34801561023957600080fd5b5061024261043c565b60405161024f9190610747565b60405180910390f35b34801561026457600080fd5b5061027f600480360381019061027a919061078e565b610465565b005b60006102986002548361055d90919063ffffffff16565b9050919050565b6102a7610573565b73ffffffffffffffffffffffffffffffffffffffff166102c561043c565b73ffffffffffffffffffffffffffffffffffffffff161461031b576040517f08c379a000000000000000000000000000000000000000000000000000000000815260040161031290610818565b60405180910390fd5b6000471161035e576040517f08c379a000000000000000000000000000000000000000000000000000000000815260040161035590610884565b60405180910390fd5b61036661043c565b73ffffffffffffffffffffffffffffffffffffffff166108fc479081150290604051600060405180830381858888f193505050501580156103ab573d6000803e3d6000fd5b50565b6103b6610573565b73ffffffffffffffffffffffffffffffffffffffff166103d461043c565b73ffffffffffffffffffffffffffffffffffffffff161461042a576040517f08c379a000000000000000000000000000000000000000000000000000000000815260040161042190610818565b60405180910390fd5b610434600061057b565b565b60025481565b60008060009054906101000a900473ffffffffffffffffffffffffffffffffffffffff16905090565b61046d610573565b73ffffffffffffffffffffffffffffffffffffffff1661048b61043c565b73ffffffffffffffffffffffffffffffffffffffff16146104e1576040517f08c379a00000000000000000000000000000000000000000000000000000000081526004016104d890610818565b60405180910390fd5b600073ffffffffffffffffffffffffffffffffffffffff168173ffffffffffffffffffffffffffffffffffffffff161415610551576040517f08c379a000000000000000000000000000000000000000000000000000000000815260040161054890610916565b60405180910390fd5b61055a8161057b565b50565b6000818361056b9190610965565b905092915050565b600033905090565b60008060009054906101000a900473ffffffffffffffffffffffffffffffffffffffff169050816000806101000a81548173ffffffffffffffffffffffffffffffffffffffff021916908373ffffffffffffffffffffffffffffffffffffffff1602179055508173ffffffffffffffffffffffffffffffffffffffff168173ffffffffffffffffffffffffffffffffffffffff167f8be0079c531659141344cd1fd0a4f28419497f9722a3daafe3b4186f6b6457e060405160405180910390a35050565b600073ffffffffffffffffffffffffffffffffffffffff82169050919050565b600061066a8261063f565b9050919050565b61067a8161065f565b82525050565b6000819050919050565b61069381610680565b82525050565b60006040820190506106ae6000830185610671565b6106bb602083018461068a565b9392505050565b600080fd5b60008115159050919050565b6106dc816106c7565b81146106e757600080fd5b50565b6000815190506106f9816106d3565b92915050565b600060208284031215610715576107146106c2565b5b6000610723848285016106ea565b91505092915050565b6000602082019050610741600083018461068a565b92915050565b600060208201905061075c6000830184610671565b92915050565b61076b8161065f565b811461077657600080fd5b50565b60008135905061078881610762565b92915050565b6000602082840312156107a4576107a36106c2565b5b60006107b284828501610779565b91505092915050565b600082825260208201905092915050565b7f4f776e61626c653a2063616c6c6572206973206e6f7420746865206f776e6572600082015250565b60006108026020836107bb565b915061080d826107cc565b602082019050919050565b60006020820190508181036000830152610831816107f5565b9050919050565b7f42616c616e636520697320300000000000000000000000000000000000000000600082015250565b600061086e600c836107bb565b915061087982610838565b602082019050919050565b6000602082019050818103600083015261089d81610861565b9050919050565b7f4f776e61626c653a206e6577206f776e657220697320746865207a65726f206160008201527f6464726573730000000000000000000000000000000000000000000000000000602082015250565b60006109006026836107bb565b915061090b826108a4565b604082019050919050565b6000602082019050818103600083015261092f816108f3565b9050919050565b7f4e487b7100000000000000000000000000000000000000000000000000000000600052601160045260246000fd5b600061097082610680565b915061097b83610680565b9250817fffffffffffffffffffffffffffffffffffffffffffffffffffffffffffffffff04831182151516156109b4576109b3610936565b5b82820290509291505056fea264697066735822122046acd32e31b71ca152478958009efb45aa7722c50f9665365830332391042cd764736f6c63430008090033",
  "immutableReferences": {},
  "source": "// SPDX-License-Identifier: MIT\npragma solidity >=0.4.22 <0.9.0;\n\nimport \"./GalaxyCoin.sol\";\nimport \"@openzeppelin/contracts/utils/math/SafeMath.sol\";\n\ncontract GalaxyCoinICO is Ownable {\n    using SafeMath for uint256; // Protection for underflow and overflow\n    GalaxyCoin token;\n    uint256 public _rate = 2700; // 1 ETH == 2700 GLX\n\n    constructor(address _tokenAddress) {\n        token = GalaxyCoin(_tokenAddress);\n    }\n\n    // Convert _weiamount into GLX Token amount and return the result\n    function _getTokenAmount(uint256 _weiAmount)\n        internal\n        view\n        returns (uint256)\n    {\n        return _weiAmount.mul(_rate);\n    }\n\n    function withdraw() external onlyOwner {\n        require(address(this).balance > 0 , \"Balance is 0\");\n        payable(owner()).transfer(address(this).balance);\n    }\n\n    // when no other function matches (not even the receive function).\n    fallback() external payable {\n        uint256 _amount = 50 * (10**18);\n        token.transfer(msg.sender, _amount);\n    }\n\n    // for empty calldata (and any value)\n    receive() external payable {\n        uint256 _amount = _getTokenAmount(msg.value);\n        token.transfer(msg.sender, _amount);\n    }\n}\n",
  "sourcePath": "/Users/clementh/Development/dapp_token/src/contracts/GalaxyCoinICO.sol",
  "compiler": {
    "name": "solc",
    "version": "0.8.9+commit.e5eed63a.Emscripten.clang"
  },
  "schemaVersion": "3.4.3",
  "updatedAt": "2021-11-15T14:35:50.872Z",
  "networkType": "ethereum",
  "devdoc": {
    "kind": "dev",
    "methods": {
      "owner()": {
        "details": "Returns the address of the current owner."
      },
      "renounceOwnership()": {
        "details": "Leaves the contract without owner. It will not be possible to call `onlyOwner` functions anymore. Can only be called by the current owner. NOTE: Renouncing ownership will leave the contract without an owner, thereby removing any functionality that is only available to the owner."
      },
      "transferOwnership(address)": {
        "details": "Transfers ownership of the contract to a new account (`newOwner`). Can only be called by the current owner."
      }
    },
    "version": 1
  },
  "userdoc": {
    "kind": "user",
    "methods": {},
    "version": 1
  }
}