{
  "contractName": "GalaxyCoinICO",
  "abi": [
    {
      "inputs": [
        {
          "internalType": "address",
          "name": "_tokenAddress",
          "type": "address"
        }
      ],
      "stateMutability": "nonpayable",
      "type": "constructor"
    },
    {
      "anonymous": false,
      "inputs": [
        {
          "indexed": true,
          "internalType": "address",
          "name": "previousOwner",
          "type": "address"
        },
        {
          "indexed": true,
          "internalType": "address",
          "name": "newOwner",
          "type": "address"
        }
      ],
      "name": "OwnershipTransferred",
      "type": "event"
    },
    {
      "stateMutability": "payable",
      "type": "fallback",
      "payable": true
    },
    {
      "inputs": [],
      "name": "_rate",
      "outputs": [
        {
          "internalType": "uint256",
          "name": "",
          "type": "uint256"
        }
      ],
      "stateMutability": "view",
      "type": "function",
      "constant": true
    },
    {
      "inputs": [],
      "name": "owner",
      "outputs": [
        {
          "internalType": "address",
          "name": "",
          "type": "address"
        }
      ],
      "stateMutability": "view",
      "type": "function",
      "constant": true
    },
    {
      "inputs": [],
      "name": "renounceOwnership",
      "outputs": [],
      "stateMutability": "nonpayable",
      "type": "function"
    },
    {
      "inputs": [
        {
          "internalType": "address",
          "name": "newOwner",
          "type": "address"
        }
      ],
      "name": "transferOwnership",
      "outputs": [],
      "stateMutability": "nonpayable",
      "type": "function"
    },
    {
      "stateMutability": "payable",
      "type": "receive",
      "payable": true
    },
    {
      "inputs": [
        {
          "internalType": "address",
          "name": "_address",
          "type": "address"
        }
      ],
      "name": "setGalaxyCoinContractAddress",
      "outputs": [],
      "stateMutability": "nonpayable",
      "type": "function"
    }
  ],
  "bytecode": "0x6080604052610a8c60025534801561001657600080fd5b50604051610b52380380610b52833981810160405281019061003891906101ca565b61005461004961009b60201b60201c565b6100a360201b60201c565b80600160006101000a81548173ffffffffffffffffffffffffffffffffffffffff021916908373ffffffffffffffffffffffffffffffffffffffff160217905550506101f7565b600033905090565b60008060009054906101000a900473ffffffffffffffffffffffffffffffffffffffff169050816000806101000a81548173ffffffffffffffffffffffffffffffffffffffff021916908373ffffffffffffffffffffffffffffffffffffffff1602179055508173ffffffffffffffffffffffffffffffffffffffff168173ffffffffffffffffffffffffffffffffffffffff167f8be0079c531659141344cd1fd0a4f28419497f9722a3daafe3b4186f6b6457e060405160405180910390a35050565b600080fd5b600073ffffffffffffffffffffffffffffffffffffffff82169050919050565b60006101978261016c565b9050919050565b6101a78161018c565b81146101b257600080fd5b50565b6000815190506101c48161019e565b92915050565b6000602082840312156101e0576101df610167565b5b60006101ee848285016101b5565b91505092915050565b61094c806102066000396000f3fe60806040526004361061004e5760003560e01c8063715018a6146101d457806383bebced146101eb5780638da5cb5b146102165780639d83d7ea14610241578063f2fde38b1461026a57610113565b3661011357600061005e34610293565b9050600160009054906101000a900473ffffffffffffffffffffffffffffffffffffffff1673ffffffffffffffffffffffffffffffffffffffff1663a9059cbb33836040518363ffffffff1660e01b81526004016100bd92919061065c565b602060405180830381600087803b1580156100d757600080fd5b505af11580156100eb573d6000803e3d6000fd5b505050506040513d601f19601f8201168201806040525081019061010f91906106c2565b5050005b60006802b5e3af16b18800009050600160009054906101000a900473ffffffffffffffffffffffffffffffffffffffff1673ffffffffffffffffffffffffffffffffffffffff1663a9059cbb33836040518363ffffffff1660e01b815260040161017e92919061065c565b602060405180830381600087803b15801561019857600080fd5b505af11580156101ac573d6000803e3d6000fd5b505050506040513d601f19601f820116820180604052508101906101d091906106c2565b5050005b3480156101e057600080fd5b506101e96102b1565b005b3480156101f757600080fd5b50610200610339565b60405161020d91906106ef565b60405180910390f35b34801561022257600080fd5b5061022b61033f565b604051610238919061070a565b60405180910390f35b34801561024d57600080fd5b5061026860048036038101906102639190610751565b610368565b005b34801561027657600080fd5b50610291600480360381019061028c9190610751565b610428565b005b60006102aa6002548361052090919063ffffffff16565b9050919050565b6102b9610536565b73ffffffffffffffffffffffffffffffffffffffff166102d761033f565b73ffffffffffffffffffffffffffffffffffffffff161461032d576040517f08c379a0000000000000000000000000000000000000000000000000000000008152600401610324906107db565b60405180910390fd5b610337600061053e565b565b60025481565b60008060009054906101000a900473ffffffffffffffffffffffffffffffffffffffff16905090565b610370610536565b73ffffffffffffffffffffffffffffffffffffffff1661038e61033f565b73ffffffffffffffffffffffffffffffffffffffff16146103e4576040517f08c379a00000000000000000000000000000000000000000000000000000000081526004016103db906107db565b60405180910390fd5b80600160006101000a81548173ffffffffffffffffffffffffffffffffffffffff021916908373ffffffffffffffffffffffffffffffffffffffff16021790555050565b610430610536565b73ffffffffffffffffffffffffffffffffffffffff1661044e61033f565b73ffffffffffffffffffffffffffffffffffffffff16146104a4576040517f08c379a000000000000000000000000000000000000000000000000000000000815260040161049b906107db565b60405180910390fd5b600073ffffffffffffffffffffffffffffffffffffffff168173ffffffffffffffffffffffffffffffffffffffff161415610514576040517f08c379a000000000000000000000000000000000000000000000000000000000815260040161050b9061086d565b60405180910390fd5b61051d8161053e565b50565b6000818361052e91906108bc565b905092915050565b600033905090565b60008060009054906101000a900473ffffffffffffffffffffffffffffffffffffffff169050816000806101000a81548173ffffffffffffffffffffffffffffffffffffffff021916908373ffffffffffffffffffffffffffffffffffffffff1602179055508173ffffffffffffffffffffffffffffffffffffffff168173ffffffffffffffffffffffffffffffffffffffff167f8be0079c531659141344cd1fd0a4f28419497f9722a3daafe3b4186f6b6457e060405160405180910390a35050565b600073ffffffffffffffffffffffffffffffffffffffff82169050919050565b600061062d82610602565b9050919050565b61063d81610622565b82525050565b6000819050919050565b61065681610643565b82525050565b60006040820190506106716000830185610634565b61067e602083018461064d565b9392505050565b600080fd5b60008115159050919050565b61069f8161068a565b81146106aa57600080fd5b50565b6000815190506106bc81610696565b92915050565b6000602082840312156106d8576106d7610685565b5b60006106e6848285016106ad565b91505092915050565b6000602082019050610704600083018461064d565b92915050565b600060208201905061071f6000830184610634565b92915050565b61072e81610622565b811461073957600080fd5b50565b60008135905061074b81610725565b92915050565b60006020828403121561076757610766610685565b5b60006107758482850161073c565b91505092915050565b600082825260208201905092915050565b7f4f776e61626c653a2063616c6c6572206973206e6f7420746865206f776e6572600082015250565b60006107c560208361077e565b91506107d08261078f565b602082019050919050565b600060208201905081810360008301526107f4816107b8565b9050919050565b7f4f776e61626c653a206e6577206f776e657220697320746865207a65726f206160008201527f6464726573730000000000000000000000000000000000000000000000000000602082015250565b600061085760268361077e565b9150610862826107fb565b604082019050919050565b600060208201905081810360008301526108868161084a565b9050919050565b7f4e487b7100000000000000000000000000000000000000000000000000000000600052601160045260246000fd5b60006108c782610643565b91506108d283610643565b9250817fffffffffffffffffffffffffffffffffffffffffffffffffffffffffffffffff048311821515161561090b5761090a61088d565b5b82820290509291505056fea2646970667358221220d0ba6a221b2f0b10e8338009821815b3c3503c718f960a2345e335a97ba70fde64736f6c63430008090033",
  "immutableReferences": {},
  "source": "// SPDX-License-Identifier: MIT\npragma solidity >=0.4.22 <0.9.0;\n\nimport \"./GalaxyCoin.sol\";\nimport \"@openzeppelin/contracts/utils/math/SafeMath.sol\";\n\ncontract GalaxyCoinICO is Ownable {\n    using SafeMath for uint256; // Protection for underflow and overflow\n\n    GalaxyCoin token;\n    uint256 public _rate = 2700; // 1 ETH == 2700 GLX\n\n    constructor(address _tokenAddress) {\n       token = GalaxyCoin(_tokenAddress);\n    }\n\n    function setGalaxyCoinContractAddress(address _address) external onlyOwner {\n        token = GalaxyCoin(_address);\n    }\n\n    // Convert _weiamount into GLX Token amount and return the result\n    function _getTokenAmount(uint256 _weiAmount)\n        internal\n        view\n        returns (uint256)\n    {\n        return _weiAmount.mul(_rate);\n    }\n\n    // when no other function matches (not even the receive function).\n    fallback () external payable {\n        uint256 _amount = 50 * (10**18);\n        token.transfer(msg.sender, _amount);\n    }\n\n    // for empty calldata (and any value)\n    receive() external payable {\n        uint256 _amount = _getTokenAmount(msg.value);\n        token.transfer(msg.sender, _amount);\n    }\n}\n",
  "sourcePath": "/Users/clementh/Development/dapp_token/src/contracts/GalaxyCoinICO.sol",
  "compiler": {
    "name": "solc",
    "version": "0.8.9+commit.e5eed63a.Emscripten.clang"
  },
  "schemaVersion": "3.4.3",
  "updatedAt": "2021-11-10T14:09:45.434Z",
  "networkType": "ethereum",
  "devdoc": {
    "kind": "dev",
    "methods": {
      "owner()": {
        "details": "Returns the address of the current owner."
      },
      "renounceOwnership()": {
        "details": "Leaves the contract without owner. It will not be possible to call `onlyOwner` functions anymore. Can only be called by the current owner. NOTE: Renouncing ownership will leave the contract without an owner, thereby removing any functionality that is only available to the owner."
      },
      "transferOwnership(address)": {
        "details": "Transfers ownership of the contract to a new account (`newOwner`). Can only be called by the current owner."
      }
    },
    "version": 1
  },
  "userdoc": {
    "kind": "user",
    "methods": {},
    "version": 1
  }
}